{
  "address": "0x5FbDB2315678afecb367f032d93F642f64180aa3",
  "abi": [
    {
      "inputs": [],
      "stateMutability": "nonpayable",
      "type": "constructor"
    },
    {
      "anonymous": false,
      "inputs": [
        {
          "indexed": true,
          "internalType": "uint256",
          "name": "courseId",
          "type": "uint256"
        },
        {
          "indexed": false,
          "internalType": "string",
          "name": "name",
          "type": "string"
        },
        {
          "indexed": true,
          "internalType": "address",
          "name": "teacher",
          "type": "address"
        }
      ],
      "name": "CourseCreated",
      "type": "event"
    },
    {
      "anonymous": false,
      "inputs": [
        {
          "indexed": true,
          "internalType": "uint256",
          "name": "courseId",
          "type": "uint256"
        }
      ],
      "name": "CourseFinalized",
      "type": "event"
    },
    {
      "anonymous": false,
      "inputs": [
        {
          "indexed": true,
          "internalType": "uint256",
          "name": "courseId",
          "type": "uint256"
        },
        {
          "indexed": false,
          "internalType": "bool",
          "name": "isActive",
          "type": "bool"
        }
      ],
      "name": "CourseStatusChanged",
      "type": "event"
    },
    {
      "anonymous": false,
      "inputs": [
        {
          "indexed": true,
          "internalType": "uint256",
          "name": "courseId",
          "type": "uint256"
        },
        {
          "indexed": true,
          "internalType": "address",
          "name": "student",
          "type": "address"
        }
      ],
      "name": "StudentCheckedIn",
      "type": "event"
    },
    {
      "inputs": [],
      "name": "admin",
      "outputs": [
        {
          "internalType": "address",
          "name": "",
          "type": "address"
        }
      ],
      "stateMutability": "view",
      "type": "function"
    },
    {
      "inputs": [
        {
          "internalType": "uint256",
          "name": "courseId",
          "type": "uint256"
        },
        {
          "internalType": "externalEuint8",
          "name": "encryptedStatus",
          "type": "bytes32"
        },
        {
          "internalType": "bytes",
          "name": "proof",
          "type": "bytes"
        }
      ],
      "name": "checkIn",
      "outputs": [],
      "stateMutability": "nonpayable",
      "type": "function"
    },
    {
      "inputs": [
        {
          "internalType": "address",
          "name": "student1",
          "type": "address"
        },
        {
          "internalType": "address",
          "name": "student2",
          "type": "address"
        }
      ],
      "name": "compareStudentScores",
      "outputs": [
        {
          "internalType": "ebool",
          "name": "student1Higher",
          "type": "bytes32"
        }
      ],
      "stateMutability": "nonpayable",
      "type": "function"
    },
    {
      "inputs": [
        {
          "internalType": "uint256",
          "name": "",
          "type": "uint256"
        }
      ],
      "name": "courses",
      "outputs": [
        {
          "internalType": "uint256",
          "name": "courseId",
          "type": "uint256"
        },
        {
          "internalType": "string",
          "name": "name",
          "type": "string"
        },
        {
          "internalType": "address",
          "name": "teacher",
          "type": "address"
        },
        {
          "internalType": "uint256",
          "name": "startTime",
          "type": "uint256"
        },
        {
          "internalType": "uint256",
          "name": "endTime",
          "type": "uint256"
        },
        {
          "internalType": "bool",
          "name": "isActive",
          "type": "bool"
        },
        {
          "internalType": "bool",
          "name": "isFinalized",
          "type": "bool"
        }
      ],
      "stateMutability": "view",
      "type": "function"
    },
    {
      "inputs": [
        {
          "internalType": "string",
          "name": "name",
          "type": "string"
        },
        {
          "internalType": "uint256",
          "name": "startTime",
          "type": "uint256"
        },
        {
          "internalType": "uint256",
          "name": "endTime",
          "type": "uint256"
        }
      ],
      "name": "createCourse",
      "outputs": [
        {
          "internalType": "uint256",
          "name": "courseId",
          "type": "uint256"
        }
      ],
      "stateMutability": "nonpayable",
      "type": "function"
    },
    {
      "inputs": [
        {
          "internalType": "uint256",
          "name": "",
          "type": "uint256"
        },
        {
          "internalType": "address",
          "name": "",
          "type": "address"
        }
      ],
      "name": "encryptedAttendance",
      "outputs": [
        {
          "internalType": "euint8",
          "name": "",
          "type": "bytes32"
        }
      ],
      "stateMutability": "view",
      "type": "function"
    },
    {
      "inputs": [
        {
          "internalType": "address",
          "name": "",
          "type": "address"
        }
      ],
      "name": "encryptedStudentScore",
      "outputs": [
        {
          "internalType": "euint32",
          "name": "",
          "type": "bytes32"
        }
      ],
      "stateMutability": "view",
      "type": "function"
    },
    {
      "inputs": [
        {
          "internalType": "uint256",
          "name": "",
          "type": "uint256"
        }
      ],
      "name": "encryptedTotalAttendance",
      "outputs": [
        {
          "internalType": "euint32",
          "name": "",
          "type": "bytes32"
        }
      ],
      "stateMutability": "view",
      "type": "function"
    },
    {
      "inputs": [
        {
          "internalType": "uint256",
          "name": "courseId",
          "type": "uint256"
        }
      ],
      "name": "finalizeCourse",
      "outputs": [],
      "stateMutability": "nonpayable",
      "type": "function"
    },
    {
      "inputs": [
        {
          "internalType": "address",
          "name": "student",
          "type": "address"
        }
      ],
      "name": "generateRandomBonus",
      "outputs": [],
      "stateMutability": "nonpayable",
      "type": "function"
    },
    {
      "inputs": [
        {
          "internalType": "uint256",
          "name": "courseId",
          "type": "uint256"
        }
      ],
      "name": "getCourseAttendance",
      "outputs": [
        {
          "internalType": "euint32",
          "name": "",
          "type": "bytes32"
        }
      ],
      "stateMutability": "view",
      "type": "function"
    },
    {
      "inputs": [
        {
          "internalType": "uint256",
          "name": "courseId",
          "type": "uint256"
        }
      ],
      "name": "getCourseDebugInfo",
      "outputs": [
        {
          "internalType": "string",
          "name": "name",
          "type": "string"
        },
        {
          "internalType": "address",
          "name": "teacher",
          "type": "address"
        },
        {
          "internalType": "uint256",
          "name": "startTime",
          "type": "uint256"
        },
        {
          "internalType": "uint256",
          "name": "endTime",
          "type": "uint256"
        },
        {
          "internalType": "bool",
          "name": "isActive",
          "type": "bool"
        },
        {
          "internalType": "bool",
          "name": "isFinalized",
          "type": "bool"
        },
        {
          "internalType": "uint256",
          "name": "currentTime",
          "type": "uint256"
        },
        {
          "internalType": "bool",
          "name": "canCheckIn",
          "type": "bool"
        }
      ],
      "stateMutability": "view",
      "type": "function"
    },
    {
      "inputs": [
        {
          "internalType": "uint256",
          "name": "courseId",
          "type": "uint256"
        }
      ],
      "name": "getCourseInfo",
      "outputs": [
        {
          "internalType": "string",
          "name": "name",
          "type": "string"
        },
        {
          "internalType": "address",
          "name": "teacher",
          "type": "address"
        },
        {
          "internalType": "uint256",
          "name": "startTime",
          "type": "uint256"
        },
        {
          "internalType": "uint256",
          "name": "endTime",
          "type": "uint256"
        },
        {
          "internalType": "bool",
          "name": "isFinalized",
          "type": "bool"
        }
      ],
      "stateMutability": "view",
      "type": "function"
    },
    {
      "inputs": [
        {
          "internalType": "uint256",
          "name": "courseId",
          "type": "uint256"
        },
        {
          "internalType": "address",
          "name": "student",
          "type": "address"
        }
      ],
      "name": "getStudentAttendance",
      "outputs": [
        {
          "internalType": "euint8",
          "name": "",
          "type": "bytes32"
        }
      ],
      "stateMutability": "view",
      "type": "function"
    },
    {
      "inputs": [
        {
          "internalType": "address",
          "name": "student",
          "type": "address"
        }
      ],
      "name": "getStudentScore",
      "outputs": [
        {
          "internalType": "euint32",
          "name": "",
          "type": "bytes32"
        }
      ],
      "stateMutability": "view",
      "type": "function"
    },
    {
      "inputs": [
        {
          "internalType": "uint256",
          "name": "courseId",
          "type": "uint256"
        },
        {
          "internalType": "address",
          "name": "",
          "type": "address"
        }
      ],
      "name": "hasStudentCheckedIn",
      "outputs": [
        {
          "internalType": "bool",
          "name": "",
          "type": "bool"
        }
      ],
      "stateMutability": "view",
      "type": "function"
    },
    {
      "inputs": [
        {
          "internalType": "address",
          "name": "",
          "type": "address"
        }
      ],
      "name": "isStudent",
      "outputs": [
        {
          "internalType": "bool",
          "name": "",
          "type": "bool"
        }
      ],
      "stateMutability": "view",
      "type": "function"
    },
    {
      "inputs": [
        {
          "internalType": "address",
          "name": "",
          "type": "address"
        }
      ],
      "name": "isTeacher",
      "outputs": [
        {
          "internalType": "bool",
          "name": "",
          "type": "bool"
        }
      ],
      "stateMutability": "view",
      "type": "function"
    },
    {
      "inputs": [],
      "name": "nextCourseId",
      "outputs": [
        {
          "internalType": "uint256",
          "name": "",
          "type": "uint256"
        }
      ],
      "stateMutability": "view",
      "type": "function"
    },
    {
      "inputs": [],
      "name": "protocolId",
      "outputs": [
        {
          "internalType": "uint256",
          "name": "",
          "type": "uint256"
        }
      ],
      "stateMutability": "pure",
      "type": "function"
    },
    {
      "inputs": [
        {
          "internalType": "address",
          "name": "student",
          "type": "address"
        }
      ],
      "name": "registerStudent",
      "outputs": [],
      "stateMutability": "nonpayable",
      "type": "function"
    },
    {
      "inputs": [
        {
          "internalType": "address",
          "name": "teacher",
          "type": "address"
        }
      ],
      "name": "registerTeacher",
      "outputs": [],
      "stateMutability": "nonpayable",
      "type": "function"
    },
    {
      "inputs": [],
      "name": "selfRegister",
      "outputs": [],
      "stateMutability": "nonpayable",
      "type": "function"
    },
    {
      "inputs": [
        {
          "internalType": "uint256",
          "name": "courseId",
          "type": "uint256"
        }
      ],
      "name": "toggleCourseStatus",
      "outputs": [],
      "stateMutability": "nonpayable",
      "type": "function"
    }
  ],
  "transactionHash": "0x3ccbfc94cd0a330d8df8db97caf00af5eabdea8328e48017d1734f961edef527",
  "args": [],
  "numDeployments": 1,
  "solcInputHash": "58927bcfc7dab87e5141c6e4b794a25d",
  "bytecode": "0x608060405234801561000f575f80fd5b5061018a6100ae604080516080810182525f80825260208201819052918101829052606081019190915250604080516080810182527350157cffd6bbfa2dece204a89ec419c23ef5755d815273cd3ab3bd6bcc0c0bf3e27912a92043e817b1cf69602082015273a02cda4ca3a71d7c46997716f4283aa851c2881291810191909152731364cbbf2cdf5032c47d8226a6f6fbd2afcdacac606082015290565b80517f9e7b61f58c47dc699ac88507c4f5bb9f121c03808c5676a8078fe583e464970080546001600160a01b03199081166001600160a01b039384161790915560208301517f9e7b61f58c47dc699ac88507c4f5bb9f121c03808c5676a8078fe583e46497018054831691841691909117905560408301517f9e7b61f58c47dc699ac88507c4f5bb9f121c03808c5676a8078fe583e46497028054831691841691909117905560608301517f9e7b61f58c47dc699ac88507c4f5bb9f121c03808c5676a8078fe583e46497038054909216921691909117905550565b600180546001600160a01b031916331781555f556126bc806101ab5f395ff3fe608060405234801561000f575f80fd5b506004361061018f575f3560e01c8063981059ee116100dd578063be77976b11610088578063d86a28bb11610063578063d86a28bb146103c5578063da1f12ab146103cd578063f851a440146103d5575f80fd5b8063be77976b14610374578063beadb98114610393578063c7573e82146103b2575f80fd5b8063aec37eb3116100b8578063aec37eb31461032c578063aee398d51461034e578063b0c3502214610361575f80fd5b8063981059ee146102e25780639ec527a114610306578063ae0ec5e414610319575f80fd5b806363531f721161013d5780637daa946f116101185780637daa946f1461028757806382f7d3921461029a57806396f979d2146102bc575f80fd5b806363531f72146102595780637cb458811461026c5780637d83daf21461027f575f80fd5b80632c18a5811161016d5780632c18a581146101eb57806331ea9f5c1461020c5780633275fdb714610236575f80fd5b8063025f3375146101935780630bfc5266146101a857806312d9b969146101bb575b5f80fd5b6101a66101a136600461217c565b610400565b005b6101a66101b6366004612195565b6104d3565b6101ce6101c9366004612195565b6106a2565b6040516101e29897969594939291906121ef565b60405180910390f35b6101fe6101f936600461217c565b6108ce565b6040519081526020016101e2565b6101fe61021a366004612246565b600560209081525f928352604080842090915290825290205481565b610249610244366004612246565b610948565b60405190151581526020016101e2565b6101fe610267366004612246565b6109fc565b6101a661027a36600461217c565b610b51565b6101fe5f5481565b6101fe610295366004612195565b610bbb565b6102496102a836600461217c565b60046020525f908152604090205460ff1681565b6102cf6102ca366004612195565b610ceb565b6040516101e29796959493929190612270565b6102f56102f0366004612195565b610dbc565b6040516101e29594939291906122bf565b6101a6610314366004612300565b610fa6565b6101fe61032736600461238d565b611405565b61024961033a36600461217c565b60036020525f908152604090205460ff1681565b6101a661035c366004612195565b61169d565b6101fe61036f36600461244a565b611854565b6101fe61038236600461217c565b60076020525f908152604090205481565b6101fe6103a1366004612195565b60066020525f908152604090205481565b6101a66103c036600461217c565b61190a565b6101a6611974565b6127116101fe565b6001546103e8906001600160a01b031681565b6040516001600160a01b0390911681526020016101e2565b335f9081526003602052604090205460ff166104525760405162461bcd60e51b815260206004820152600c60248201526b27b7363c903a32b0b1b432b960a11b60448201526064015b60405180910390fd5b5f61045b611ab5565b6001600160a01b0383165f908152600760205260409020549091506104889061048383611ac0565b611acc565b6001600160a01b0383165f9081526007602052604090208190556104ab90611b01565b506001600160a01b0382165f908152600760205260409020546104ce9083611b10565b505050565b335f9081526003602052604090205460ff166105205760405162461bcd60e51b815260206004820152600c60248201526b27b7363c903a32b0b1b432b960a11b6044820152606401610449565b5f8181526002602052604081205490036105745760405162461bcd60e51b815260206004820152601560248201527410dbdd5c9cd948191bd95cc81b9bdd08195e1a5cdd605a1b6044820152606401610449565b5f81815260026020819052604090912001546001600160a01b031633146105dd5760405162461bcd60e51b815260206004820152601e60248201527f4f6e6c7920636f7572736520746561636865722063616e206d6f6469667900006044820152606401610449565b5f81815260026020526040902060050154610100900460ff16156106435760405162461bcd60e51b815260206004820152601e60248201527f43616e6e6f74206d6f646966792066696e616c697a656420636f7572736500006044820152606401610449565b5f81815260026020908152604091829020600501805460ff8082161560ff199092168217909255925192161515825282917f090f6bc7903a4711e0694aded118c02e3c32ea7763fd9bdfbbbab79fc0168919910160405180910390a250565b60605f805f805f805f885f811180156106bb57505f5481105b6106ff5760405162461bcd60e51b815260206004820152601560248201527410dbdd5c9cd948191bd95cc81b9bdd08195e1a5cdd605a1b6044820152606401610449565b5f8181526002602052604090205481146107545760405162461bcd60e51b815260206004820152601660248201527510dbdd5c9cd9481b9bdd081a5b9a5d1a585b1a5e995960521b6044820152606401610449565b5f60025f8c81526020019081526020015f206040518060e00160405290815f820154815260200160018201805461078a90612472565b80601f01602080910402602001604051908101604052809291908181526020018280546107b690612472565b80156108015780601f106107d857610100808354040283529160200191610801565b820191905f5260205f20905b8154815290600101906020018083116107e457829003601f168201915b505050918352505060028201546001600160a01b0316602082015260038201546040820152600482015460608083019190915260059092015460ff8082161515608084015261010090910416151560a09091015281015190915042905f908210801590610872575082608001518211155b801561088057508260c00151155b801561088d57508260a001515b905082602001518360400151846060015185608001518660a001518760c0015187879b509b509b509b509b509b509b509b5050505050919395975091939597565b5f336001600160a01b03831614806108f057506001546001600160a01b031633145b61092d5760405162461bcd60e51b815260206004820152600e60248201526d139bdd08185d5d1a1bdc9a5e995960921b6044820152606401610449565b506001600160a01b03165f9081526007602052604090205490565b5f825f8111801561095957505f5481105b61099d5760405162461bcd60e51b815260206004820152601560248201527410dbdd5c9cd948191bd95cc81b9bdd08195e1a5cdd605a1b6044820152606401610449565b5f8181526002602052604090205481146109f25760405162461bcd60e51b815260206004820152601660248201527510dbdd5c9cd9481b9bdd081a5b9a5d1a585b1a5e995960521b6044820152606401610449565b5060019392505050565b5f825f81118015610a0d57505f5481105b610a515760405162461bcd60e51b815260206004820152601560248201527410dbdd5c9cd948191bd95cc81b9bdd08195e1a5cdd605a1b6044820152606401610449565b5f818152600260205260409020548114610aa65760405162461bcd60e51b815260206004820152601660248201527510dbdd5c9cd9481b9bdd081a5b9a5d1a585b1a5e995960521b6044820152606401610449565b336001600160a01b0384161480610ad657505f84815260026020819052604090912001546001600160a01b031633145b80610aeb57506001546001600160a01b031633145b610b285760405162461bcd60e51b815260206004820152600e60248201526d139bdd08185d5d1a1bdc9a5e995960921b6044820152606401610449565b50505f9182526005602090815260408084206001600160a01b0393909316845291905290205490565b6001546001600160a01b03163314610b985760405162461bcd60e51b815260206004820152600a60248201526927b7363c9030b236b4b760b11b6044820152606401610449565b6001600160a01b03165f908152600360205260409020805460ff19166001179055565b5f815f81118015610bcc57505f5481105b610c105760405162461bcd60e51b815260206004820152601560248201527410dbdd5c9cd948191bd95cc81b9bdd08195e1a5cdd605a1b6044820152606401610449565b5f818152600260205260409020548114610c655760405162461bcd60e51b815260206004820152601660248201527510dbdd5c9cd9481b9bdd081a5b9a5d1a585b1a5e995960521b6044820152606401610449565b5f83815260026020819052604090912001546001600160a01b0316331480610c9757506001546001600160a01b031633145b610cd45760405162461bcd60e51b815260206004820152600e60248201526d139bdd08185d5d1a1bdc9a5e995960921b6044820152606401610449565b5f8381526006602052604090205491505b50919050565b60026020525f908152604090208054600182018054919291610d0c90612472565b80601f0160208091040260200160405190810160405280929190818152602001828054610d3890612472565b8015610d835780601f10610d5a57610100808354040283529160200191610d83565b820191905f5260205f20905b815481529060010190602001808311610d6657829003601f168201915b5050505060028301546003840154600485015460059095015493946001600160a01b039092169390925060ff8082169161010090041687565b60605f805f80855f81118015610dd257505f5481105b610e165760405162461bcd60e51b815260206004820152601560248201527410dbdd5c9cd948191bd95cc81b9bdd08195e1a5cdd605a1b6044820152606401610449565b5f818152600260205260409020548114610e6b5760405162461bcd60e51b815260206004820152601660248201527510dbdd5c9cd9481b9bdd081a5b9a5d1a585b1a5e995960521b6044820152606401610449565b5f60025f8981526020019081526020015f206040518060e00160405290815f8201548152602001600182018054610ea190612472565b80601f0160208091040260200160405190810160405280929190818152602001828054610ecd90612472565b8015610f185780601f10610eef57610100808354040283529160200191610f18565b820191905f5260205f20905b815481529060010190602001808311610efb57829003601f168201915b505050918352505060028201546001600160a01b03166020808301919091526003830154604080840191909152600484015460608085019190915260059094015460ff808216151560808087019190915261010090920416151560a0909401939093529084015190840151928401519184015160c090940151909c929b509099509197509095509350505050565b335f9081526004602052604090205460ff166110045760405162461bcd60e51b815260206004820152600c60248201527f4f6e6c792073747564656e7400000000000000000000000000000000000000006044820152606401610449565b835f8111801561101457505f5481105b6110585760405162461bcd60e51b815260206004820152601560248201527410dbdd5c9cd948191bd95cc81b9bdd08195e1a5cdd605a1b6044820152606401610449565b5f8181526002602052604090205481146110ad5760405162461bcd60e51b815260206004820152601660248201527510dbdd5c9cd9481b9bdd081a5b9a5d1a585b1a5e995960521b6044820152606401610449565b5f8581526002602052604090206003015442101561110d5760405162461bcd60e51b815260206004820152601260248201527f436f75727365206e6f74207374617274656400000000000000000000000000006044820152606401610449565b5f8581526002602052604090206004015442111561116d5760405162461bcd60e51b815260206004820152601460248201527f436f7572736520616c726561647920656e6465640000000000000000000000006044820152606401610449565b5f85815260026020526040902060050154610100900460ff16156111d35760405162461bcd60e51b815260206004820152601060248201527f436f757273652066696e616c697a6564000000000000000000000000000000006044820152606401610449565b5f6112138585858080601f0160208091040260200160405190810160405280939291908181526020018383808284375f92019190915250611b2292505050565b905061121e81611b01565b506112298133611b10565b505f868152600560209081526040808320338452909152902081905561124e81611b01565b505f8681526005602090815260408083203380855292529091205461127291611b10565b505f868152600560209081526040808320338452825280832054898452600292839052922001546112ac91906001600160a01b0316611b10565b505f6112c1826112bc6001611b2f565b611b3e565b5f888152600660205260409020549091506112f290610483836112e46001611b6c565b6112ed5f611b6c565b611b7e565b5f88815260066020526040812091909155611311826112e4600a611b6c565b335f9081526007602052604090205490915061132d9082611acc565b335f908152600760209081526040808320939093558a825260069052205461135490611b01565b505f8881526006602052604090205461136d9033611b10565b505f888152600660209081526040808320546002928390529220015461139c91906001600160a01b0316611b10565b50335f908152600760205260409020546113b590611b01565b50335f818152600760205260409020546113ce91611b10565b50604051339089907fa7b2f5e65a66c7bc40c4302af6c12cbe645cd1f4939db5ce72d2d828e1c40fda905f90a35050505050505050565b335f9081526003602052604081205460ff166114525760405162461bcd60e51b815260206004820152600c60248201526b27b7363c903a32b0b1b432b960a11b6044820152606401610449565b61145e61012c426124b8565b83116114d25760405162461bcd60e51b815260206004820152602a60248201527f53746172742074696d65206d757374206e6f7420626520746f6f20666172206960448201527f6e207468652070617374000000000000000000000000000000000000000000006064820152608401610449565b8282116115215760405162461bcd60e51b815260206004820152601c60248201527f456e642074696d65206d757374206265206166746572207374617274000000006044820152606401610449565b5f8054908061152f836124cb565b909155506040805160e081018252828152602080820188815233838501526060830188905260808301879052600160a084018190525f60c0850181905286815260029093529390912082518155905193945090929091820190611592908261252e565b5060408201516002820180546001600160a01b039092167fffffffffffffffffffffffff0000000000000000000000000000000000000000909216919091179055606082015160038201556080820151600482015560a08201516005909101805460c09093015115156101000261ff00199215159290921661ffff19909316929092171790556116215f611b6c565b5f82815260066020526040902081905561163a90611b01565b505f818152600660205260409020546116539033611b10565b50336001600160a01b0316817fdb3fafffbb284e95f813ac0a83dbcafbbe522f0facb2ca6ed137fb6b807f31498660405161168e91906125ee565b60405180910390a39392505050565b335f9081526003602052604090205460ff166116ea5760405162461bcd60e51b815260206004820152600c60248201526b27b7363c903a32b0b1b432b960a11b6044820152606401610449565b5f81815260026020526040812054900361173e5760405162461bcd60e51b815260206004820152601560248201527410dbdd5c9cd948191bd95cc81b9bdd08195e1a5cdd605a1b6044820152606401610449565b5f81815260026020819052604090912001546001600160a01b031633146117a75760405162461bcd60e51b815260206004820181905260248201527f4f6e6c7920636f7572736520746561636865722063616e2066696e616c697a656044820152606401610449565b5f81815260026020526040902060050154610100900460ff161561180d5760405162461bcd60e51b815260206004820152601860248201527f436f7572736520616c72656164792066696e616c697a656400000000000000006044820152606401610449565b5f81815260026020526040808220600501805461ffff19166101001790555182917fa3e6f1f4aa6dff539135ae1b47a31a0ca9a90cd1a8aec0b279980aa179f0642c91a250565b6001545f906001600160a01b031633146118b05760405162461bcd60e51b815260206004820152601660248201527f4f6e6c792061646d696e2063616e20636f6d70617265000000000000000000006044820152606401610449565b6001600160a01b038084165f9081526007602052604080822054928516825281205490916118dd91611b92565b90506118e881611b01565b506001546119009082906001600160a01b0316611b10565b5090505b92915050565b6001546001600160a01b031633146119515760405162461bcd60e51b815260206004820152600a60248201526927b7363c9030b236b4b760b11b6044820152606401610449565b6001600160a01b03165f908152600460205260409020805460ff19166001179055565b335f9081526003602052604090205460ff16156119f95760405162461bcd60e51b815260206004820152602960248201527f54656163686572732063616e6e6f742073656c662d726567697374657220617360448201527f2073747564656e747300000000000000000000000000000000000000000000006064820152608401610449565b335f9081526004602052604090205460ff1615611a585760405162461bcd60e51b815260206004820152601d60248201527f416c726561647920726567697374657265642061732073747564656e740000006044820152606401610449565b335f908152600460205260408120805460ff19166001179055611a7a90611b6c565b335f908152600760205260409020819055611a9490611b01565b50335f81815260076020526040902054611aad91611b10565b50565b905090565b5f611ab06002611bc0565b5f611904826004611c60565b5f82611ade57611adb5f611b6c565b92505b81611aef57611aec5f611b6c565b91505b611afa83835f611d02565b9392505050565b5f611b0c8230611dd2565b5090565b5f611b1b8383611dd2565b5090919050565b5f611afa83836002611e48565b5f6119048260ff166002611f55565b5f82611b5057611b4d5f611b2f565b92505b81611b6157611b5e5f611b2f565b91505b611afa83835f611fb7565b5f6119048263ffffffff166004611f55565b5f611b8a848484612041565b949350505050565b5f82611ba457611ba15f611b6c565b92505b81611bb557611bb25f611b6c565b91505b611afa83835f6120d7565b7f9e7b61f58c47dc699ac88507c4f5bb9f121c03808c5676a8078fe583e464970154604051636baeb74560e11b81525f915f80516020612690833981519152916001600160a01b039091169063d75d6e8a90611c20908690600401612620565b6020604051808303815f875af1158015611c3c573d5f803e3d5ffd5b505050506040513d601f19601f82011682018060405250810190611afa919061262e565b7f9e7b61f58c47dc699ac88507c4f5bb9f121c03808c5676a8078fe583e4649701546040516307227b9160e21b81525f915f80516020612690833981519152916001600160a01b0390911690631c89ee4490611cc29087908790600401612645565b6020604051808303815f875af1158015611cde573d5f803e3d5ffd5b505050506040513d601f19601f82011682018060405250810190611b8a919061262e565b5f808215611d155750600160f81b611d18565b505f5b7f9e7b61f58c47dc699ac88507c4f5bb9f121c03808c5676a8078fe583e46497015460405163022f65e760e31b815260048101879052602481018690526001600160f81b0319831660448201525f80516020612690833981519152916001600160a01b03169063117b2f38906064015b6020604051808303815f875af1158015611da4573d5f803e3d5ffd5b505050506040513d601f19601f82011682018060405250810190611dc8919061262e565b9695505050505050565b5f5f805160206126908339815191528054604051635ca4b5b160e11b8152600481018690526001600160a01b03858116602483015292935091169063b9496b62906044015f604051808303815f87803b158015611e2d575f80fd5b505af1158015611e3f573d5f803e3d5ffd5b50505050505050565b7f9e7b61f58c47dc699ac88507c4f5bb9f121c03808c5676a8078fe583e46497015460405163196d0b9b60e01b81525f915f80516020612690833981519152916001600160a01b039091169063196d0b9b90611eae908890339089908990600401612659565b6020604051808303815f875af1158015611eca573d5f803e3d5ffd5b505050506040513d601f19601f82011682018060405250810190611eee919061262e565b8154604051630f8e573b60e21b8152600481018390523360248201529193506001600160a01b031690633e395cec906044015f604051808303815f87803b158015611f37575f80fd5b505af1158015611f49573d5f803e3d5ffd5b50505050509392505050565b7f9e7b61f58c47dc699ac88507c4f5bb9f121c03808c5676a8078fe583e464970154604051639cd07acb60e01b81525f915f80516020612690833981519152916001600160a01b0390911690639cd07acb90611cc29087908790600401612645565b5f808215611fca5750600160f81b611fcd565b505f5b7f9e7b61f58c47dc699ac88507c4f5bb9f121c03808c5676a8078fe583e46497015460405163f77f3f1d60e01b815260048101879052602481018690526001600160f81b0319831660448201525f80516020612690833981519152916001600160a01b03169063f77f3f1d90606401611d88565b5f805f805160206126908339815191526001810154604051637702dcff60e01b81526004810188905260248101879052604481018690529192506001600160a01b031690637702dcff906064016020604051808303815f875af11580156120aa573d5f803e3d5ffd5b505050506040513d601f19601f820116820180604052508101906120ce919061262e565b95945050505050565b5f8082156120ea5750600160f81b6120ed565b505f5b7f9e7b61f58c47dc699ac88507c4f5bb9f121c03808c5676a8078fe583e4649701546040516385362ee760e01b815260048101879052602481018690526001600160f81b0319831660448201525f80516020612690833981519152916001600160a01b0316906385362ee790606401611d88565b80356001600160a01b0381168114612177575f80fd5b919050565b5f6020828403121561218c575f80fd5b611afa82612161565b5f602082840312156121a5575f80fd5b5035919050565b5f81518084525f5b818110156121d0576020818501810151868301820152016121b4565b505f602082860101526020601f19601f83011685010191505092915050565b5f6101008083526122028184018c6121ac565b6001600160a01b039a909a1660208401525050604081019690965260608601949094529115156080850152151560a084015260c0830152151560e090910152919050565b5f8060408385031215612257575f80fd5b8235915061226760208401612161565b90509250929050565b87815260e060208201525f61228860e08301896121ac565b6001600160a01b039790971660408301525060608101949094526080840192909252151560a0830152151560c09091015292915050565b60a081525f6122d160a08301886121ac565b90506001600160a01b038616602083015284604083015283606083015282151560808301529695505050505050565b5f805f8060608587031215612313575f80fd5b8435935060208501359250604085013567ffffffffffffffff80821115612338575f80fd5b818701915087601f83011261234b575f80fd5b813581811115612359575f80fd5b88602082850101111561236a575f80fd5b95989497505060200194505050565b634e487b7160e01b5f52604160045260245ffd5b5f805f6060848603121561239f575f80fd5b833567ffffffffffffffff808211156123b6575f80fd5b818601915086601f8301126123c9575f80fd5b8135818111156123db576123db612379565b604051601f8201601f19908116603f0116810190838211818310171561240357612403612379565b8160405282815289602084870101111561241b575f80fd5b826020860160208301375f60208483010152809750505050505060208401359150604084013590509250925092565b5f806040838503121561245b575f80fd5b61246483612161565b915061226760208401612161565b600181811c9082168061248657607f821691505b602082108103610ce557634e487b7160e01b5f52602260045260245ffd5b634e487b7160e01b5f52601160045260245ffd5b81810381811115611904576119046124a4565b5f600182016124dc576124dc6124a4565b5060010190565b601f8211156104ce57805f5260205f20601f840160051c810160208510156125085750805b601f840160051c820191505b81811015612527575f8155600101612514565b5050505050565b815167ffffffffffffffff81111561254857612548612379565b61255c816125568454612472565b846124e3565b602080601f83116001811461258f575f84156125785750858301515b5f19600386901b1c1916600185901b1785556125e6565b5f85815260208120601f198616915b828110156125bd5788860151825594840194600190910190840161259e565b50858210156125da57878501515f19600388901b60f8161c191681555b505060018460011b0185555b505050505050565b602081525f611afa60208301846121ac565b6054811061261c57634e487b7160e01b5f52602160045260245ffd5b9052565b602081016119048284612600565b5f6020828403121561263e575f80fd5b5051919050565b82815260408101611afa6020830184612600565b8481526001600160a01b0384166020820152608060408201525f61268060808301856121ac565b90506120ce606083018461260056fe9e7b61f58c47dc699ac88507c4f5bb9f121c03808c5676a8078fe583e4649700a164736f6c6343000818000a",
  "devdoc": {
    "kind": "dev",
    "methods": {},
    "title": "MaskedAttendance - FHEVM",
    "version": 1
  },
  "userdoc": {
    "kind": "user",
    "methods": {
      "checkIn(uint256,bytes32,bytes)": {
        "notice": "  - FHEVM"
      },
      "compareStudentScores(address,address)": {
        "notice": " "
      },
      "createCourse(string,uint256,uint256)": {
        "notice": ""
      },
      "finalizeCourse(uint256)": {
        "notice": " - "
      },
      "generateRandomBonus(address)": {
        "notice": " "
      },
      "getCourseAttendance(uint256)": {
        "notice": ""
      },
      "getCourseDebugInfo(uint256)": {
        "notice": ""
      },
      "getCourseInfo(uint256)": {
        "notice": ""
      },
      "getStudentAttendance(uint256,address)": {
        "notice": ""
      },
      "getStudentScore(address)": {
        "notice": ""
      },
      "hasStudentCheckedIn(uint256,address)": {
        "notice": ""
      },
      "registerStudent(address)": {
        "notice": ""
      },
      "registerTeacher(address)": {
        "notice": ""
      },
      "selfRegister()": {
        "notice": ""
      },
      "toggleCourseStatus(uint256)": {
        "notice": " - "
      }
    },
    "notice": "FHEVM",
    "version": 1
  },
  "storageLayout": {
    "storage": [
      {
        "astId": 39452,
        "contract": "src/MaskedAttendance.sol:MaskedAttendance",
        "label": "nextCourseId",
        "offset": 0,
        "slot": "0",
        "type": "t_uint256"
      },
      {
        "astId": 39454,
        "contract": "src/MaskedAttendance.sol:MaskedAttendance",
        "label": "admin",
        "offset": 0,
        "slot": "1",
        "type": "t_address"
      },
      {
        "astId": 39459,
        "contract": "src/MaskedAttendance.sol:MaskedAttendance",
        "label": "courses",
        "offset": 0,
        "slot": "2",
        "type": "t_mapping(t_uint256,t_struct(Course)39450_storage)"
      },
      {
        "astId": 39463,
        "contract": "src/MaskedAttendance.sol:MaskedAttendance",
        "label": "isTeacher",
        "offset": 0,
        "slot": "3",
        "type": "t_mapping(t_address,t_bool)"
      },
      {
        "astId": 39467,
        "contract": "src/MaskedAttendance.sol:MaskedAttendance",
        "label": "isStudent",
        "offset": 0,
        "slot": "4",
        "type": "t_mapping(t_address,t_bool)"
      },
      {
        "astId": 39474,
        "contract": "src/MaskedAttendance.sol:MaskedAttendance",
        "label": "encryptedAttendance",
        "offset": 0,
        "slot": "5",
        "type": "t_mapping(t_uint256,t_mapping(t_address,t_userDefinedValueType(euint8)39031))"
      },
      {
        "astId": 39479,
        "contract": "src/MaskedAttendance.sol:MaskedAttendance",
        "label": "encryptedTotalAttendance",
        "offset": 0,
        "slot": "6",
        "type": "t_mapping(t_uint256,t_userDefinedValueType(euint32)39037)"
      },
      {
        "astId": 39484,
        "contract": "src/MaskedAttendance.sol:MaskedAttendance",
        "label": "encryptedStudentScore",
        "offset": 0,
        "slot": "7",
        "type": "t_mapping(t_address,t_userDefinedValueType(euint32)39037)"
      }
    ],
    "types": {
      "t_address": {
        "encoding": "inplace",
        "label": "address",
        "numberOfBytes": "20"
      },
      "t_bool": {
        "encoding": "inplace",
        "label": "bool",
        "numberOfBytes": "1"
      },
      "t_mapping(t_address,t_bool)": {
        "encoding": "mapping",
        "key": "t_address",
        "label": "mapping(address => bool)",
        "numberOfBytes": "32",
        "value": "t_bool"
      },
      "t_mapping(t_address,t_userDefinedValueType(euint32)39037)": {
        "encoding": "mapping",
        "key": "t_address",
        "label": "mapping(address => euint32)",
        "numberOfBytes": "32",
        "value": "t_userDefinedValueType(euint32)39037"
      },
      "t_mapping(t_address,t_userDefinedValueType(euint8)39031)": {
        "encoding": "mapping",
        "key": "t_address",
        "label": "mapping(address => euint8)",
        "numberOfBytes": "32",
        "value": "t_userDefinedValueType(euint8)39031"
      },
      "t_mapping(t_uint256,t_mapping(t_address,t_userDefinedValueType(euint8)39031))": {
        "encoding": "mapping",
        "key": "t_uint256",
        "label": "mapping(uint256 => mapping(address => euint8))",
        "numberOfBytes": "32",
        "value": "t_mapping(t_address,t_userDefinedValueType(euint8)39031)"
      },
      "t_mapping(t_uint256,t_struct(Course)39450_storage)": {
        "encoding": "mapping",
        "key": "t_uint256",
        "label": "mapping(uint256 => struct MaskedAttendance.Course)",
        "numberOfBytes": "32",
        "value": "t_struct(Course)39450_storage"
      },
      "t_mapping(t_uint256,t_userDefinedValueType(euint32)39037)": {
        "encoding": "mapping",
        "key": "t_uint256",
        "label": "mapping(uint256 => euint32)",
        "numberOfBytes": "32",
        "value": "t_userDefinedValueType(euint32)39037"
      },
      "t_string_storage": {
        "encoding": "bytes",
        "label": "string",
        "numberOfBytes": "32"
      },
      "t_struct(Course)39450_storage": {
        "encoding": "inplace",
        "label": "struct MaskedAttendance.Course",
        "members": [
          {
            "astId": 39437,
            "contract": "src/MaskedAttendance.sol:MaskedAttendance",
            "label": "courseId",
            "offset": 0,
            "slot": "0",
            "type": "t_uint256"
          },
          {
            "astId": 39439,
            "contract": "src/MaskedAttendance.sol:MaskedAttendance",
            "label": "name",
            "offset": 0,
            "slot": "1",
            "type": "t_string_storage"
          },
          {
            "astId": 39441,
            "contract": "src/MaskedAttendance.sol:MaskedAttendance",
            "label": "teacher",
            "offset": 0,
            "slot": "2",
            "type": "t_address"
          },
          {
            "astId": 39443,
            "contract": "src/MaskedAttendance.sol:MaskedAttendance",
            "label": "startTime",
            "offset": 0,
            "slot": "3",
            "type": "t_uint256"
          },
          {
            "astId": 39445,
            "contract": "src/MaskedAttendance.sol:MaskedAttendance",
            "label": "endTime",
            "offset": 0,
            "slot": "4",
            "type": "t_uint256"
          },
          {
            "astId": 39447,
            "contract": "src/MaskedAttendance.sol:MaskedAttendance",
            "label": "isActive",
            "offset": 0,
            "slot": "5",
            "type": "t_bool"
          },
          {
            "astId": 39449,
            "contract": "src/MaskedAttendance.sol:MaskedAttendance",
            "label": "isFinalized",
            "offset": 1,
            "slot": "5",
            "type": "t_bool"
          }
        ],
        "numberOfBytes": "192"
      },
      "t_uint256": {
        "encoding": "inplace",
        "label": "uint256",
        "numberOfBytes": "32"
      },
      "t_userDefinedValueType(euint32)39037": {
        "encoding": "inplace",
        "label": "euint32",
        "numberOfBytes": "32"
      },
      "t_userDefinedValueType(euint8)39031": {
        "encoding": "inplace",
        "label": "euint8",
        "numberOfBytes": "32"
      }
    }
  }
}